:020000040800F2
:1000000070060020CD010008AF050008A705000814
:10001000AB050008F10300082507000800000000F8
:10002000000000000000000000000000D5050008EE
:10003000F503000800000000B1050008C106000833
:10004000E7010008E7010008E7010008E7010008F0
:10005000E7010008E7010008E7010008E7010008E0
:10006000E7010008E7010008E7010008E7010008D0
:10007000E7010008E7010008E7010008E7010008C0
:10008000E7010008E7010008E7010008E7010008B0
:10009000E7010008E7010008E7010008E7010008A0
:1000A000E7010008E7010008E7010008E701000890
:1000B000E7010008E7010008E7010008E701000880
:1000C000E7010008E7010008E7010008E701000870
:1000D000E7010008E7010008E7010008E701000860
:1000E000E7010008E7010008E7010008E701000850
:1000F000E7010008E7010008E7010008E701000840
:10010000E7010008E7010008E7010008E70100082F
:10011000E7010008E7010008E7010008E70100081F
:10012000E7010008E7010008E7010008E70100080F
:1001300000F002F800F03AF80AA090E8000C8244BF
:100140008344AAF10107DA4501D100F02FF8AFF29C
:10015000090EBAE80F0013F0010F18BFFB1A43F0A5
:1001600001031847340F0000540F0000103A24BF59
:1001700078C878C1FAD8520724BF30C830C144BF0C
:1001800004680C607047000000230024002500264E
:10019000103A28BF78C1FBD8520728BF30C148BFEA
:1001A0000B6070471FB51FBD10B510BD00F031F8D2
:1001B0001146FFF7F7FF00F0DBFA00F04FF803B449
:1001C000FFF7F2FF03BC00F057F800000948804732
:1001D00009480047FEE7FEE7FEE7FEE7FEE7FEE729
:1001E000FEE7FEE7FEE7FEE704480549054A064B41
:1001F00070470000C50600083101000870000020AB
:1002000070060020700200207002002070477047C6
:100210007047754600F02CF8AE4605006946534617
:1002200020F00700854618B020B5FFF7DDFFBDE8D8
:1002300020404FF000064FF000074FF000084FF04D
:10024000000B21F00701AC46ACE8C009ACE8C009DE
:10025000ACE8C009ACE8C0098D46704710B504464B
:10026000AFF300802046BDE81040FFF7A8BF0000B4
:10027000004870471000002001491820ABBEFEE77F
:10028000260002007047000008B501211C2000F084
:1002900091F94FF48060ADF8000003208DF8020062
:1002A00010208DF803006946094800F0EDF84FF47E
:1002B000BA70ADF800006946064800F0E5F843F66C
:1002C000FF70ADF800006946034800F0DDF808BD96
:1002D000000C0140000801400010014010B5FFF77C
:1002E000D3FF0120124908601249C1F8A001002083
:1002F0000F49091F086001200D49091D08600020F1
:10030000086000211D2000F051F80C211E2000F093
:100310004DF800211F2000F049F86021202000F056
:1003200045F801200249091F08600020086010BD3F
:1003300094012142000021422DE9F04106460F467A
:10034000144600254FF004083046394600F054F8B2
:1003500006250AE06A1ED2B21546114B995C40464A
:10036000431C03F0FF0800F021F8002DF2DC210A05
:10037000212000F01BF8E1B2222000F017F8210A3A
:10038000232000F013F8E1B2242000F00FF8012040
:100390000449086000200449C1F89001BDE8F081DB
:1003A00000000020900121420000214210B541EAE6
:1003B00000220B4B1A601A461288C2F30D03084A3A
:1003C000128843F6FF74624043EA0242054B1A6109
:1003D0000022054B1A600122044BC3F8942110BD82
:1003E0000800002000100140940121420000214239
:1003F00000BFFEE7704700002DE9FC5F04460D4694
:100400001C491D48CDE9001020462946DDE900239E
:1004100000F04EFC04460D46184A194B204629466A
:1004200000F07EFA074600F0D3FB8146484600F014
:100430002CFC0746114A124B00F03AFC8246224639
:100440002B4600F033FD04460D462046294600F0B9
:10045000EFFB06460B490E70300A4870300C88706E
:10046000300EC87081F804904FEA19204871BDE839
:10047000FC9F0000DC7428674CE531410000E0FF80
:10048000FFFFEF41000000202DE9F041024600256A
:100490000026002000230024002791F803C00CF060
:1004A0000F0591F803C00CF0100CBCF1000F03D045
:1004B00091F802C04CEA050591F800C0BCF1000FAC
:1004C00031D0146800202BE04FF0010C0CFA00F33F
:1004D000B1F800C00CEA03069E4220D183004FF021
:1004E0000F0C0CFA03F7BC4305FA03FC4CEA0404B6
:1004F00091F803C0BCF1280F06D14FF0010C0CFAA3
:1005000000FCC2F814C00AE091F803C0BCF1480F27
:1005100005D14FF0010C0CFA00FCC2F810C0401CD1
:100520000828D1D31460B1F800C0BCF1FF0F34DD4E
:10053000546800202EE000F1080C4FF0010808FA82
:100540000CF3B1F800C00CEA03069E4221D18300EF
:100550004FF00F0C0CFA03F7BC4305FA03FC4CEA0E
:10056000040491F803C0BCF1280F05D100F1080C78
:1005700008FA0CF8C2F8148091F803C0BCF1480FD7
:1005800007D100F1080C4FF0010808FA0CF8C2F886
:100590001080401C0828CED35460BDE8F081416132
:1005A00070470161704700BFFEE700BFFEE770477C
:1005B0007047000029B1064A92690243044B9A61D0
:1005C00004E0034A92698243014B9A61704700003C
:1005D00000100240704710B500F002F810BD000096
:1005E0000CB50020019000903348006840F4803042
:1005F0003149086000BF3048006800F400300090C6
:100600000198401C0190009818B90198B0F5A06FAE
:10061000F1D12948006800F4003010B101200090A9
:1006200001E0002000900098012843D12348006891
:1006300040F01000214908600846006820F00300DF
:1006400008600846006840F0020008601A484068E8
:10065000194948600846406848600846406840F4C8
:10066000806048600846406820F47C104860084676
:10067000406840F4E81048600846006840F0807028
:10068000086000BF0C48006800F000700028F9D036
:100690000948406820F00300074948600846406860
:1006A00040F00200486000BF0348406800F00C00C2
:1006B0000828F9D10CBD00000010024000200240C3
:1006C0007047000010B51348006840F00100114960
:1006D000086008464068104908400E4948600846CE
:1006E00000680E4908400B4908600846006820F47D
:1006F000802008600846406820F4FE0048604FF4FF
:100700001F008860FFF767FF4FF000600449086032
:1007100010BD0000001002400000FFF8FFFFF6FED1
:1007200008ED00E000BFFEE700B5034603E04FF42C
:100730007A7000F006F8181EA3F101018BB2F6D111
:1007400000BD00EBC001C9004FF0E0225161002163
:1007500091610521116100BF4FF0E021096901F4A9
:1007600080310029F8D004214FF0E0221161704758
:1007700008B501210420FFF71DFF0220ADF800009D
:1007800010208DF8030003208DF8020069460E4802
:10079000FFF77AFEFFF7A2FD40F6FF7200200B493B
:1007A000FFF7CAFD0FE002210748FFF7FAFE4FF4FA
:1007B0007A70FFF7B9FF02210348FFF7F0FE4FF40C
:1007C0007A70FFF7B1FFEEE7000801400088C340F0
:1007D00010B591EA030F48BF83F0004300F17A831C
:1007E000841A71EB030C05D2121943EB0C03001BA6
:1007F00061EB0C01DFF824E14FEA1154A4EB135C28
:100800001EEA430F18BF9EEA445F73D023EA0E032B
:10081000DCF1200E21EA045143F4801332D322FA92
:100820000CFE10EB0E0023FA0CFE41EB0E01CCF196
:10083000200E03FA0EFE10EB0E0051F10001B1F58F
:10084000801FCCF1200E32D201EB045112FA0EF2CD
:10085000BDE8104058BF7047401C38BF5FEA4202F5
:1008600018BF7047002814BF20F0010041F10001BB
:100870004FEA410313F5001F38BF7047A1F1C04193
:1008800000F00EBB012A43EB0302ACF1200CDCF1BB
:100890001F0E32BF4FF0000E23FA0CF310EB0300D3
:1008A00041EB0451B4EB115FD0D0A1EB045101F541
:1008B000801149085FEA300001EB04510ED350F17A
:1008C000000038BF12FA0EFE08D1BDE81040C9E79B
:1008D000401C38BF5FEA4202CAD1C3E7BDE81040FE
:1008E0004FEA410313F5001F38BF7047A1F1C04123
:1008F00000F0D6BA9EEA445F08D011EA5E0FBDE868
:10090000104004BF01F0004100207047BDE81040D6
:1009100070B500F077FA00BF64FBBE3E0000E0FF58
:100920002DE9C04130B4DFF8A0C23CEA111418BF71
:100930003CEA131400F0EC8081EA03051CEA111470
:1009400044EAD57418BF1CEA131500F0C780A4EB65
:1009500005044FF0004545EAC12145EAC32341EAB9
:10096000505143EA525304F17F74994204F5003424
:100970004FEAC0204FEAC22208BF904200F09C809C
:100980004FEA13650FF24016765D4FEA134506FBFA
:1009900005F7C7F1807706FB07F74FEAD737A7FBC4
:1009A00003687642C8F58038A7FB06CE38BFA8F1A9
:1009B000010807FB08E64FF0000EA6FB028CE6FBE1
:1009C00003CEDCF1000CCEF1004E38BFAEF1010ECB
:1009D000A6FB0C584FF000074FF00005E6FB0E8712
:1009E000A1FB08C6A0FB07CE16EB0E0645F10005DD
:1009F000E1FB076515F1E04E7EBFA4F580345FEAA8
:100A000046066D4116F1800745F100054FEA1727AC
:100A10004FEA066647EA0567A6F1DE46B6F1805F53
:100A20004FEA15251FD9384624F0010C05EBC47197
:100A3000BCF1FE6F01EB0C1102D8F0BCBDE80081E7
:100A400024425CBF01F5801E9EEAC47F02D4F0BC44
:100A5000BDE80081244238D4F0BCA1F1C041BDE81A
:100A6000004100F01DBA4FEAD22242EA43524FEA57
:100A7000D323A7FB02864FEAD02040EA415007FB70
:100A800003661EEA0E0F4FEAD12105FB026658BF2E
:100A9000A6EB0056B6EB00564FEA520E4EEAC37E66
:100AA00018EB0E0E56EB530EBDD518EB02085E4147
:100AB0007F1C55F10005B6E74FF480154FF0000795
:100AC0004FF000064FF00008ADE7F0BC4FF000001B
:100AD00001F1C04101F00041BDE8008111EA0C1FA5
:100AE0000CEA131500D00CE013EA0C1F00F025806F
:100AF0004FF00000F0BC81EA030101F00041BDE8C5
:100B00000081F0BCBDE8004181EA030100F0C8B9F2
:100B1000F0BCBDE8004170B500F074F9097EFC3E00
:100B200000F007B881EA03014FF0000001F0004136
:100B3000704781EA030100F0B3B9F0BCBDE80041A1
:100B40004FF0000021497047FFFDFBF9F7F5F4F283
:100B5000F0EEEDEBE9E8E6E4E3E1E0DEDDDBDAD858
:100B6000D7D5D4D3D1D0CFCDCCCBCAC8C7C6C5C4B6
:100B7000C2C1C0BFBEBDBCBBBAB9B8B7B6B5B4B3CD
:100B8000B2B1B0AFAEADACABAAA9A8A8A7A6A5A4B8
:100B9000A3A3A2A1A09F9F9E9D9C9C9B9A9999987C
:100BA0009797969595949393929191908F8F8E8E1F
:100BB0008D8C8C8B8B8A89898888878786858584AC
:100BC00084838382828181800000FF070000F87F98
:100BD0004FEA41034FEA5353A3F58063D3F11E0359
:100BE000C8BFD3F1210C0CDD4FF0004242EAC12214
:100BF00042EA505232FA03FC8CEAE17CACEBE17041
:100C00007047102BC4BF0020704703F5787CBCF1FF
:100C1000FF3F04D06FF0004282EA2100704770B5B8
:100C200000F0F0F84992248000207047F2E70000BD
:100C30004FEA1153A3F58063D3F11E03A8BFD3F18C
:100C4000200C08DB4FF0004242EAC12252EA505227
:100C500032FA03F0704709420BD4102BC4BF0020B6
:100C6000704703F5787CBCF1FF3F05D04FF0FF30B3
:100C700070474FF00000704770B500F0C3F800BF38
:100C80004992248000207047F0E7B0FA80F310FA10
:100C900003F10AD0C3F11D0303F580634FEA41500D
:100CA0004FEA035202EBD12170474FF0000070472A
:100CB000DFF848C170B51CEA111E1EBF1CEA1315EF
:100CC0009EEA0C0F95EA0C0F00F06F8081EA030496
:100CD00023EA4C134EEAD47E21EA4C1141F48011F0
:100CE00043F48013AE44A1FB024CA0FB0365AEF1BC
:100CF0007F7E361955EB0C05A1FB034C4CF100032C
:100D0000A0FB021C16EB0C06654153F100030942DF
:100D100018BF46F0010613F4007F0BD14FEA0331F0
:100D20004FEA0530340341EA155140EA16506FF09E
:100D300003020AE04FEAC3214FEAC520F40241EA68
:100D4000555140EA56506FF0020202EB2E4201EB81
:100D5000025585EACE710AD05FEA440C18BF24F030
:100D6000004450F1000041F1000120EAD47040F24B
:100D7000FE7C624500D270BDA84214BF4FF0804493
:100D80004FF04044002E08BF0024BEF1806FA8BF82
:100D9000A1F1C041BDE8704080F282804FF00000B8
:100DA00001F1C04101F0004170479EEA0C0F0CEACE
:100DB000131518BF95EA0C0F06D04FF0000081EA1A
:100DC000030E0EF0004170BD00F01CF88900013EDA
:100DD00000F007B800F009B84FEA430C5FEA5C5C2A
:100DE00008D081EA030100F05BB84FEA410C5FEAEA
:100DF0005C5CF6D14FF00000014970470000FF072E
:100E00000000F87F0EF1020E2EF0030E5EF8046B68
:100E1000364205D4012A43EB030515F5001F12D80D
:100E2000012841EB010C1CF5001F0CD80ED14FEA34
:100E3000D17C15F5001F0CEB4C0C0CF1020C08BF1B
:100E40004CEBD37C04E04FF0080C01E04FEAD37C7C
:100E50000CEB4C0526FA05F606F00706B6F1040C75
:100E600006D20EEB860CBDE870404CF0010C6047DA
:100E7000DFE80CF0090B02024FF000414FF00000D8
:100E8000A1F5002170BD19461046012851EB01045F
:100E900018BFD4F5001484BF002001F0004170BDDC
:100EA0000808A0F500114FEA3101704791EA030FDD
:100EB00010B581F000413FF593AC83F0004300F0A2
:100EC00009B8000010B591EA030F48BF83F0004352
:100ED0003FF586AC841A71EB030C07D212198CF023
:100EE000004C43EB0C03001B61EB0C01DFF8A4E1A9
:100EF0004FEA1154A4EB135C1EEA430F18BF9EEA9D
:100F0000445F00F0B08023EA6E03524221EA0451AC
:100F1000C3EB6E0338BF5B1EDCF1200E25D322FA33
:100F20000CFE10EB0E0043FA0CFE41EB0E01CCF16F
:100F3000200E03FA0EFE10EB0E0051F10001CCF171
:100F4000200E29D412FA0EF201EB0451BDE8104034
:100F500058BF7047401C1CBFB2F1004F70470028BB
:100F60000CBF491C20F00100704712EB020E43EB4E
:100F7000030218BF4FF0010E4EEA4202ACF1200C02
:100F8000DCF11E0E54D943FA0CFE10EB0E0051F1A9
:100F9000FF31CCF11E0ED5D50EF1010E12FA0EFE68
:100FA000404141EB010101EB445C5FEA5C5C10D91C
:100FB00010EBDE7001EB045138BFBEF1004FBDE80D
:100FC000104018BF704700280CBF491C20F00100DA
:100FD000704730D24FEAD42C11F5001124F400648C
:100FE0001BD0B1FA81F20B3AA41AA41ED2F120034D
:100FF000914030FA03F31943904001EBCC71002C7F
:1010000001EB0451BDE81040A8BF704701F1C04199
:101010004FF0000001F000417047B0FA80F310FA81
:1010200003F100D110BDE41A173C4805C90AE4E7F2
:1010300001EB045110BD491001EB0451BDE8104013
:101040004FEA300002E04FF0000170474A0008BF4D
:101050000042F8D0B2F5001F28BF704701F00041F0
:101060004FF0000070479EEA445F07D011EA5E0F20
:10107000BDE8104004BF002100207047BDE81040CB
:1010800070B5FFF7BFFE00BF40DFF63E83F00041C2
:10109000104670470000E0FFB81000080000002074
:1010A000100000006C010008C810000810000020AB
:1010B0006006000088010008000000000000000039
:0810C000000000000000000028
:0400000508000131BD
:00000001FF
